:100000000C9464000C948C000C948C000C943702BB
:100010000C9437020C9437020C948C000C940E0153
:100020000C948C000C948C000C948C000C948C0020
:100030000C948C000C948C000C948C000C948C0010
:100040000C94C8030C948C000C94F4060C942607B2
:100050000C948C000C948C000C948C000C948C00F0
:100060000C948C000C948C0000000008000201002D
:100070000003040700000000000000000102040863
:100080001020408001020408102001020408102002
:10009000040404040404040402020202020203032E
:1000A00003030303000000002300260029000000D2
:1000B0000000250028002B0000000000240027007D
:1000C0002A0039015607400111241FBECFEFD8E0A6
:1000D000DEBFCDBF11E0A0E0B1E0ECE9F0E102C08D
:1000E00005900D92A832B107D9F722E0A8E2B1E05D
:1000F00001C01D92A133B207E1F710E0C6ECD0E0D9
:1001000004C02297FE010E943D08C23CD107C9F7F6
:100110000E949A070C9441080C940000A0EBB0E0F8
:100120001C92E1EBF0E010821092B2008FEF80930E
:10013000B3008C9182608C93808182608083E0E741
:10014000F0E080818260808326E040E855E260E054
:1001500070E084E991E00E94920640E855E260E098
:1001600070E088E291E00E943A0361E08DE00E9435
:10017000400561E089E00E94400561E08AE00E945C
:10018000400561E087E00E94400561E088E00E9450
:10019000400560E089E00E94790560E08AE00E9405
:1001A000790560E087E00E94790560E088E00E94C0
:1001B000790560E070E085E00E94B80460E070E0DE
:1001C00086E00E94B80483E00E94980460ED77E026
:1001D00080E090E00E943504789408956FEF70E01D
:1001E00085E00E94B8046FEF70E086E00E94B804DA
:1001F00060E089E00E94790560E08AE00E9479056C
:1002000060E087E00E94790560E088E00E9479055F
:100210006CE271E080E090E00C9435041F920F9244
:100220000FB60F9211242F933F934F935F936F93C9
:100230007F938F939F93AF93BF93EF93FF9381E14E
:100240000E949B048D3B924014F00E94EE00FF91AF
:10025000EF91BF91AF919F918F917F916F915F913E
:100260004F913F912F910F900FBE0F901F901895B7
:10027000089520E043E062E088E291E00C940A03F4
:1002800088E291E00C94B1022091890130918A01B9
:1002900028173907B9F490914701809148019817C0
:1002A00089F0E0914701F0E0E75BFE4F808120910B
:1002B000470130E02F5F3F4F2F73332720934701D3
:1002C00090E008958FEF9FEF08951F93CF93DF93F2
:1002D000DC015C968D919C915D97009749F481E0DB
:1002E00090E013969C938E93129780E090E03BC031
:1002F0005196ED91FC91529750962C915097322F38
:1003000030951FB75E964C915E9741FB772770F949
:1003100041FD6095F8944081772311F0422B01C094
:1003200043234083EC012197F1F748E0508160FFBF
:1003300002C0522B01C053235083EC012197F1F7E7
:100340006695415099F78081772311F0832301C08E
:10035000822B80831FBF5C968D919C915D97019746
:10036000F1F781E090E0DF91CF911F910895209106
:10037000890130918A012817390781F4909147014A
:1003800080914801981751F0E0914701F0E0E75B58
:10039000FE4F8081992787FD909508958FEF9FEFFD
:1003A00008952091890130918A012817390771F445
:1003B000809148012091470190E0805C9F4F821B13
:1003C000910960E470E00E94D207089580E090E017
:1003D00008952091890130918A012817390739F44D
:1003E0008FB7F89410924801109247018FBF08957B
:1003F000E0918901F0918A01E817F90769F4A3896E
:10040000B4899C918589809589238C9310928A0167
:100410001092890181E0089580E00895CF93DF93E1
:10042000EC018A8D9B8D892BF1F08091890190914F
:100430008A018C179D07B9F0009711F00E94F8010E
:100440008E8D8E7F8E8F1092480110924701D0932F
:100450008A01C0938901EB89FC8980819D89892B60
:10046000808381E001C080E0DF91CF9108951F92E9
:100470000F920FB60F9211242F933F934F935F93D8
:100480006F937F938F939F93AF93BF93EF93FF935C
:10049000E0918901F0918A01309709F451C0868D6D
:1004A000A685B785958581FF04C08C91892329F4A1
:1004B00047C08C91892309F043C0A389B4899C91DA
:1004C0008589809589238C93868997890197F1F78F
:1004D000208D318DA685B785758558E040E0C9012E
:1004E0000197F1F7842F90E095958795482F6C91AF
:1004F000672309F04068515091F7868D81FD409542
:100500008091480190E001968F73992720914701CF
:10051000281749F0A0914801B0E0A75BBE4F4C936B
:100520008093480103C0868D8160868F828D938D74
:100530000197F1F7A389B4898C919589892B8C93C4
:10054000FF91EF91BF91AF919F918F917F916F91AB
:100550005F914F913F912F910F900FBE0F901F9081
:1005600018952BE031E0FC01318320830C94F801D5
:100570001F93CF93DF93EC01162F6E8D66956170FC
:1005800081E06827812F0E94790561E0812F0E9418
:100590004005812F90E0FC01E458FF4FE491E88B87
:1005A000FC01E057FF4FE491F0E0EE0FFF1FE25532
:1005B000FF4F859194919A8B898BDF91CF911F91F9
:1005C00008951F93CF93DF93EC01162F60E0812FE6
:1005D0000E9440058E8D81FD04C061E0812F0E9444
:1005E00079051C87812F90E0FC01E458FF4FE491CE
:1005F000ED87FC01E057FF4FE491F0E0EE0FFF1FA5
:10060000EC55FF4F859194919F878E87DF91CF9115
:100610001F910895FF920F931F93CF93DF93EC01E7
:10062000F62E522F1B821A8208EE13E020E030E0F3
:100630000C831D832E833F838BE091E09983888315
:100640001F8A1E8A198E188E1B8E1A8E1D8E1C8E66
:100650008E8D8E7F50FB81F98E8F642FCE010E948C
:10066000B8026F2DCE01DF91CF911F910F91FF90B6
:100670000C94E102CF93DF93EC019A01AB011B8E46
:100680001A8E198E188E1F8A1E8A60E079E08DE31B
:1006900090E00E940808C9012430310520F0B9011A
:1006A0006350710902C061E070E07D8F6C8FEC8552
:1006B000E63108F068C0B901769567956431710537
:1006C00018F06351710902C061E070E07F8B6E8B9E
:1006D000069718F0C901059702C081E090E0998F54
:1006E000888FC901880F991F820F931F9695879550
:1006F000969587958D30910510F00C9702C081E09A
:1007000090E09B8F8A8F20916800E83050F091E054
:10071000EE3008F490E081E001C0880F9A95EAF786
:1007200001C084E0822B809368002C85283038F04B
:100730002E3040F0263148F48CE690E008C08DE67B
:1007400090E005C08BE690E002C080E090E09C8BDA
:100750008B8B283030F481E001C0880F2A95EAF7AE
:100760000DC0822F90E02E3010F4089701C00E9734
:1007700091E001C0990F8A95EAF7892F8D8B8C8DB6
:100780009D8D0197F1F7CE01DF91CF910C940E0270
:100790001F920F920FB60F9211242F933F938F93B6
:1007A0009F93AF93BF9380918C0190918D01A09105
:1007B0008E01B0918F0130918B0123E0230F2D37F3
:1007C00020F40196A11DB11D05C026E8230F029655
:1007D000A11DB11D20938B0180938C0190938D01FD
:1007E000A0938E01B0938F0180919001909191011F
:1007F000A0919201B09193010196A11DB11D80932A
:10080000900190939101A0939201B0939301BF91B5
:10081000AF919F918F913F912F910F900FBE0F90AD
:100820001F9018953FB7F894809190019091910195
:10083000A0919201B091930126B5A89B05C02F3FCE
:1008400019F00196A11DB11D3FBF6627782F892F92
:100850009A2F620F711D811D911D42E0660F771F57
:10086000881F991F4A95D1F70895CF92DF92EF9292
:10087000FF92CF93DF936B017C010E941204EB0186
:10088000C114D104E104F10489F00E94D1070E944F
:1008900012046C1B7D0B683E734090F381E0C81A14
:1008A000D108E108F108C851DC4FEACFDF91CF91C0
:1008B000FF90EF90DF90CF900895789484B5826098
:1008C00084BD84B5816084BD85B5826085BD85B5F4
:1008D000816085BDEEE6F0E0808181608083E1E8A3
:1008E000F0E01082808182608083808181608083DB
:1008F000E0E8F0E0808181608083E1EBF0E08081DE
:1009000084608083E0EBF0E0808181608083EAE7AF
:10091000F0E0808184608083808182608083808138
:10092000816080838081806880831092C1000895F7
:100930008093060108958E3008F08E5087702091C4
:10094000060190E4299F90011124822B80937C0062
:1009500080917A00806480937A0080917A0086FD8D
:10096000FCCF809178002091790090E0922B08953F
:100970001F93CF93DF93182FEB0161E00E94400596
:10098000209711F460E004C0CF3FD10539F461E055
:10099000812FDF91CF911F910C947905E12FF0E029
:1009A000E859FF4FE491E330F9F048F4E130B9F051
:1009B000E230A1F584B5806284BDC8BD34C0E730A3
:1009C000E9F0E83019F1E43049F580918000806267
:1009D00080938000D0938B00C0938A0024C084B59C
:1009E000806884BDC7BD1FC08091800080688093EF
:1009F0008000D0938900C093880015C08091B0001A
:100A000080688093B000C093B3000DC08091B000A7
:100A100080628093B000C093B40005C0C038D10597
:100A20000CF0B5CFAFCFDF91CF911F9108958330F8
:100A300081F028F4813099F08230A1F00895873058
:100A4000A9F08830B9F08430D1F4809180008F7D96
:100A500003C0809180008F7780938000089584B5D3
:100A60008F7702C084B58F7D84BD08958091B000DA
:100A70008F7703C08091B0008F7D8093B000089580
:100A8000CF93DF9390E0FC01E458FF4F2491FC01E9
:100A9000E057FF4F8491882349F190E0880F991F18
:100AA000FC01E854FF4FA591B49182559F4FFC0182
:100AB000C591D4919FB7611108C0F8948C9120958D
:100AC00082238C93888182230AC0623051F4F89487
:100AD0008C91322F309583238C938881822B88834D
:100AE00004C0F8948C91822B8C939FBFDF91CF919F
:100AF00008950F931F93CF93DF931F92CDB7DEB767
:100B0000282F30E0F901E859FF4F8491F901E458AA
:100B1000FF4F1491F901E057FF4F04910023C9F0F2
:100B2000882321F069830E9417056981E02FF0E096
:100B3000EE0FFF1FE255FF4FA591B4919FB7F894B8
:100B40008C91611103C01095812301C0812B8C937E
:100B50009FBF0F90DF91CF911F910F910895FC01DE
:100B6000818D228D90E0805C9F4F821B91098F7355
:100B700099270895FC01918D828D981731F0828D0F
:100B8000E80FF11D858D90E008958FEF9FEF089598
:100B9000FC01918D828D981761F0828DDF01A80F85
:100BA000B11D5D968C91928D9F5F9F73928F90E0A7
:100BB00008958FEF9FEF08958CE497E0892B49F01B
:100BC00080E090E0892B29F00E944C0781110C9461
:100BD00000000895FC01848DDF01A80FB11DA35A08
:100BE000BF4F2C91848D90E001968F739927848F4D
:100BF000A689B7892C93A089B1898C9180648C9344
:100C0000938D848D981306C00288F389E02D80812E
:100C10008F7D80830895CF93DF93EC01888D8823A7
:100C2000C9F0EA89FB89808185FD05C0A889B98959
:100C30008C9186FD0FC00FB607FCF5CF808185FF34
:100C4000F2CFA889B9898C9185FFEDCFCE010E94A2
:100C5000EA05E7CFDF91CF910895CF92DF92FF921F
:100C60000F931F93CF93DF931F92CDB7DEB76C0125
:100C700081E0D60158968C9358975B969C915B9730
:100C80005C968C915C97981307C05096ED91FC91FF
:100C90005197808185FD2EC0F601038D10E00F5F16
:100CA0001F4F0F731127F02EF601848DF81211C01B
:100CB0000FB607FCF9CFD6015096ED91FC915197F4
:100CC000808185FFF1CFC60169830E94EA056981B1
:100CD000EBCF838DE80FF11DE35AFF4F6083D60100
:100CE0005B960C935B975296ED91FC9153978081A4
:100CF00080620CC0D6015696ED91FC9157976083A7
:100D00005096ED91FC91519780818064808381E0C1
:100D100090E00F90DF91CF911F910F91FF90DF90A6
:100D2000CF900895BF92CF92DF92EF92FF92CF9330
:100D3000DF93EC016A017B01B22EE889F98982E038
:100D40008083411581EE580761057105A1F060E0CF
:100D500079E08DE390E0A70196010E94E60721501B
:100D60003109410951095695479537952795211520
:100D700080E1380798F0E889F989108260E874E822
:100D80008EE190E0A70196010E94E607215031090B
:100D9000410951095695479537952795EC85FD856D
:100DA0003083EE85FF852083188EEC89FD89B08223
:100DB000EA89FB89808180618083EA89FB8980815F
:100DC00088608083EA89FB89808180688083EA89E2
:100DD000FB8980818F7D8083DF91CF91FF90EF90A1
:100DE000DF90CF90BF9008951F920F920FB60F9291
:100DF00011242F938F939F93EF93FF93E091A4017E
:100E0000F091A5018081E091AA01F091AB0182FDF2
:100E100012C090818091AD018F5F8F732091AE01E0
:100E2000821751F0E091AD01F0E0EC56FE4F958F46
:100E30008093AD0101C08081FF91EF919F918F91CF
:100E40002F910F900FBE0F901F9018951F920F9229
:100E50000FB60F9211242F933F934F935F936F938D
:100E60007F938F939F93AF93BF93EF93FF9384E907
:100E700091E00E94EA05FF91EF91BF91AF919F91A0
:100E80008F917F916F915F914F913F912F910F9033
:100E90000FBE0F901F90189584E991E00E94AF0556
:100EA00021E0892B09F420E0822F08951092970108
:100EB0001092960188EE93E0A0E0B0E08093980154
:100EC00090939901A0939A01B0939B018BE191E0DB
:100ED000909395018093940185EC90E09093A1010B
:100EE0008093A00184EC90E09093A3018093A201F1
:100EF00080EC90E09093A5018093A40181EC90E0B8
:100F00009093A7018093A60182EC90E09093A901B1
:100F10008093A80186EC90E09093AB018093AA01A6
:100F20001092AD011092AE011092AF011092B0017B
:100F3000089508950E945D040E9499070E948E0002
:100F4000CCEDD5E00E9438012097E1F30E94DC054A
:100F5000F9CFCF92DF92EF92FF920F931F93CF932F
:100F6000DF936C017A01EB01E60EF71E00E010E062
:100F7000CE15DF0561F06991D601ED91FC910190EC
:100F8000F081E02DC6010995080F191FF1CFC801A6
:100F9000DF91CF911F910F91FF90EF90DF90CF9055
:100FA0000895089597FB072E16F4009407D077FD57
:100FB00009D00E94270807FC05D03EF49095819542
:100FC0009F4F0895709561957F4F0895A1E21A2E65
:100FD000AA1BBB1BFD010DC0AA1FBB1FEE1FFF1FDD
:100FE000A217B307E407F50720F0A21BB30BE40B2D
:100FF000F50B661F771F881F991F1A9469F7609574
:101000007095809590959B01AC01BD01CF0108952D
:10101000052E97FB1EF400940E941F0857FD07D071
:101020000E94E60707FC03D04EF40C941F0850956D
:101030004095309521953F4F4F4F5F4F08959095C4
:101040008095709561957F4F8F4F9F4F0895AA1B94
:10105000BB1B51E107C0AA1FBB1FA617B70710F0A3
:10106000A61BB70B881F991F5A95A9F780959095D5
:10107000BC01CD010895EE0FFF1F0590F491E02D06
:10108000099410E0C6ECD0E004C0FE010E943D08C7
:0C1090002296C83CD107C9F7F894FFCFA6
:10109C0000003102800001000000006501A907D1A9
:1010AC00014401B701E901000000002D06A907AFBA
:0810BC0005C805BA050B06008A
:00000001FF
