:100000000C9463000C948B000C948B000C942805CA
:100010000C9428050C9428050C948B000C94A005D6
:100020000C948B000C948B000C948B000C948B0024
:100030000C948B000C948B000C948B000C948B0014
:100040000C94DE040C948B000C94AC040C94860489
:100050000C948B000C948B000C948B000C948B00F4
:100060000C948B000C948B000000000024002700EF
:100070002A0000000008000201000003040700003D
:1000800000000000000000000000230026002900FE
:1000900000000000250028002B00040404040404D0
:1000A0000404020202020202030303030303010227
:1000B00004081020408001020408102001020408F6
:1000C0001020AA052F0A11241FBECFEFD8E0DEBFF3
:1000D000CDBF22E0A0E4B1E001C01D92AB34B20775
:1000E000E1F711E0A0E0B1E0E4EEF8E102C0059034
:1000F0000D92A034B107D9F710E0C2E6D0E004C0F9
:100100002197FE010E945F0CC136D107C9F70E94FA
:1001100055060C94650C0C940000CF92DF92EF9280
:10012000FF920F931F93CF93DF93EC016A017B0142
:1001300010E000E02FB7F8948091890190918A0136
:10014000A0918B01B0918C012FBF88879987AA87D6
:10015000BB87E881F9810284F385E02DCE01099502
:1001600097FF26C02FB7F8948091890190918A015A
:10017000A0918B01B0918C012FBF488559856A856C
:100180007B85841B950BA60BB70B4C815D816E8123
:100190007F8184179507A607B707D8F2C801DF91BA
:1001A000CF911F910F91FF90EF90DF90CF90089526
:1001B000F70181937F010F5F1F4FC016D10609F031
:1001C000B9CFECCFAF92BF92CF92DF92EF92FF9276
:1001D0000F931F93CF93DF936C017B018B01040F6F
:1001E000151FEB015E01AE18BF08C017D10759F00B
:1001F0006991D601ED91FC910190F081E02DC6014D
:100200000995892B79F7C501DF91CF911F910F9146
:10021000FF90EF90DF90CF90BF90AF900895FC01DA
:10022000538D448D252F30E0842F90E0821B930B5B
:10023000541710F0CF96089501970895FC01918D01
:10024000828D981761F0A28DAE0FBF2FB11D5D9604
:100250008C91928D9F5F9F73928F90E008958FEFA6
:100260009FEF0895FC01918D828D981731F0828D5A
:10027000E80FF11D858D90E008958FEF9FEF0895B1
:10028000FC01918D228D892F90E0805C9F4F821B15
:1002900091098F73992708958FE891E00E9440019A
:1002A00021E0892B09F420E0822F089580E090E07E
:1002B000892B29F00E944C0181110C9400000895B3
:1002C000FC01A48DA80FB92FB11DA35ABF4F2C91CB
:1002D000848D90E001968F739927848FA689B789C2
:1002E0002C93A089B1898C91837080648C93938DB9
:1002F000848D981306C00288F389E02D80818F7D5C
:1003000080830895EF92FF920F931F93CF93DF9313
:10031000EC0181E0888F9B8D8C8D98131AC0E88941
:10032000F989808185FF15C09FB7F894EE89FF8910
:100330006083E889F98980818370806480839FBFAE
:1003400081E090E0DF91CF911F910F91FF90EF90AE
:100350000895F62E0B8D10E00F5F1F4F0F731127BE
:10036000E02E8C8D8E110CC00FB607FCFACFE889F9
:10037000F989808185FFF5CFCE010E946001F1CF20
:10038000EB8DEC0FFD2FF11DE35AFF4FF0829FB76D
:10039000F8940B8FEA89FB8980818062CFCFCF935D
:1003A000DF93EC01888D8823B9F0AA89BB89E8899D
:1003B000F9898C9185FD03C0808186FD0DC00FB643
:1003C00007FCF7CF8C9185FFF2CF808185FFEDCFC1
:1003D000CE010E946001E9CFDF91CF91089590E0B6
:1003E000FC01EE58FF4F2491FC01E255FF4F349180
:1003F000FC01E656FF4FE491EE23C9F0222339F0C9
:10040000233001F1A8F4213019F1223029F1F0E074
:10041000EE0FFF1FE057FF4FA591B4918FB7F894EF
:10042000EC91611126C030953E233C938FBF089517
:100430002730A9F02830C9F0243049F78091800096
:100440008F7D03C0809180008F7780938000DFCF05
:1004500084B58F7784BDDBCF84B58F7DFBCF809152
:10046000B0008F778093B000D2CF8091B0008F7DA5
:10047000F9CF3E2BDACFCF93DF9390E0FC01E2552A
:10048000FF4F249186569F4FFC0184918823D1F021
:1004900090E0880F991FFC01E859FF4FA591B49196
:1004A000FC01E057FF4FC591D49161110EC09FB779
:1004B000F8948C91E22FE0958E238C932881E2238F
:1004C000E8839FBFDF91CF9108958FB7F894EC91A7
:1004D000E22BEC938FBFF6CF1F93CF93DF93182FB0
:1004E000EB0161E00E943B02209739F460E0812F2C
:1004F000DF91CF911F910C94EF01CF3FD10511F403
:1005000061E0F5CFE12FF0E0EE58FF4FE491E330EA
:1005100031F140F4E130B1F0E230E1F0C038D10522
:100520007CF7E4CFE73029F1E83059F1E430B1F756
:1005300080918000806280938000D0938B00C09374
:100540008A0004C084B5806884BDC7BDDF91CF91A7
:100550001F91089584B5806284BDC8BDF7CF809196
:100560008000806880938000D0938900C0938800C9
:10057000EDCF8091B00080688093B000C093B3004D
:10058000E5CF8091B00080628093B000C093B4004A
:10059000DDCF2091000190E4299F900111248E501D
:1005A000822B80937C0080917A00806480937A0013
:1005B00080917A0086FDFCCF80917800909179003F
:1005C00008953FB7F8948091810190918201A091A4
:1005D0008301B091840126B5A89B05C02F3F19F077
:1005E0000196A11DB11D3FBFBA2FA92F982F8827B3
:1005F000BC01CD01620F711D811D911D42E0660F8E
:10060000771F881F991F4A95D1F708958F929F925F
:10061000AF92BF92CF92DF92EF92FF926B017C017B
:100620000E94E1024B015C01C114D104E104F10418
:10063000B9F00E94E102681979098A099B09683EAC
:1006400073408105910580F321E0C21AD108E108C9
:10065000F10888EE880E83E0981EA11CB11CE4CF3F
:10066000FF90EF90DF90CF90BF90AF909F908F90D2
:10067000089520918701309188012817390771F476
:100680009091850180918601981741F0E091850154
:10069000F0E0E05CFE4F808190E008958FEF9FEFE7
:1006A00008950895EF92FF920F931F93CF93DF93D6
:1006B000DC015C96ED90FC905D97E114F10479F417
:1006C00081E090E013969C938E93129790E080E0E7
:1006D000DF91CF911F910F91FF90EF900895519668
:1006E000ED91FC91529750968C915097982F909540
:1006F0000FB75E962C915E97122F127021FD6095B8
:10070000F8942081112319F1282B2083E7012197E8
:10071000F1F728E0462F50E0308160FF1AC0382BF7
:100720003083E7012197F1F7BA017595679521505C
:1007300089F7112381F08081892380830FBF5C9624
:100740008D919C910197F1F781E090E0C1CF292331
:10075000DCCF3923E5CF9081892BEFCF2091870122
:10076000309188012817390771F480918601209112
:10077000850190E0805C9F4F821B910960E470E0EE
:100780000E94150C089590E080E008952091870163
:100790003091880128173907B9F49091850180912B
:1007A0008601981789F0E0918501F0E0E05CFE4F4A
:1007B00080812091850130E02F5F3F4F2F733327D9
:1007C0002093850190E008958FEF9FEF089590E0CA
:1007D00080E008956FEF70E085E00E946C026FEF9B
:1007E00070E086E00E946C0260E089E00E94EF0108
:1007F00060E08AE00E94EF0160E087E00E94EF0184
:1008000060E088E00E94EF0164E670E080E090E044
:100810000C940603FC0101900020E9F73197AF0129
:10082000481B590BBC018FE891E00C94E2008F92B9
:100830009F92AF92BF920F931F93CF93DF93CDB749
:10084000DEB7A1970FB6F894DEBF0FBECDBF19A2D9
:10085000423008F44AE08E010F5D1F4F842E912C28
:10086000B12CA12CA50194010E94290CE62FB901FD
:10087000CA01EA30F4F4E05DD801EE938D01232B38
:10088000242B252B79F790E080E0109719F0CD010B
:100890000E940A04A1960FB6F894DEBF0FBECDBF2A
:1008A000DF91CF911F910F91BF90AF909F908F904C
:1008B0000895E95CE1CFCF92DF92EF92FF92CF9360
:1008C000DF936B017C016DE28FE891E00E94820171
:1008D000EC0166277727CB016C197D098E099F09EA
:1008E0004AE00E9417048C0F9D1FDF91CF91FF906B
:1008F000EF90DF90CF900895BC01990F880B990B72
:1009000097FD0C945B044AE00C9417041F920F921D
:100910000FB60F9211242F933F934F935F936F93D2
:100920007F938F939F93AF93BF93EF93FF938FE842
:1009300091E00E946001FF91EF91BF91AF919F9173
:100940008F917F916F915F914F913F912F910F9078
:100950000FBE0F901F9018951F920F920FB60F9217
:1009600011242F938F939F93EF93FF93E0919F0117
:10097000F091A0018081E091A501F091A60182FD96
:100980001BC090818091A8018F5F8F732091A90176
:10099000821741F0E091A801F0E0E157FE4F958FFA
:1009A0008093A801FF91EF919F918F912F910F90CC
:1009B0000FBE0F901F9018958081F4CF1F920F9259
:1009C0000FB60F9211242F933F938F939F93AF9362
:1009D000BF938091890190918A01A0918B01B09180
:1009E0008C013091800123E0230F2D3758F50196BB
:1009F000A11DB11D209380018093890190938A01EC
:100A0000A0938B01B0938C01809181019091820120
:100A1000A0918301B09184010196A11DB11D809325
:100A2000810190938201A0938301B0938401BF91CF
:100A3000AF919F918F913F912F910F900FBE0F908B
:100A40001F90189526E8230F0296A11DB11DD2CF45
:100A50001F920F920FB60F9211242F933F934F9333
:100A60005F936F937F938F939F93AF93BF93EF9316
:100A7000FF93E0918701F0918801309749F0A685B6
:100A8000B7858585968D91FF14C09C918923A1F42B
:100A9000FF91EF91BF91AF919F918F917F916F9156
:100AA0005F914F913F912F910F900FBE0F901F902C
:100AB00018959C91892361F7A389B4899C918589B4
:100AC000809589238C93868997890197F1F7608DAA
:100AD000718DA685B785558538E020E0CB0101975B
:100AE000F1F7822F90E095958795282F4C9145231B
:100AF00009F02068315091F7868D81FD2095809115
:100B0000860190E001968F739927309185013817FF
:100B100099F0A0918601B0E0A05CBE4F2C93809329
:100B20008601828D938D0197F1F7A389B4898C9109
:100B30009589892B8C93ACCF868D8160868FF1CF80
:100B40001F920F920FB60F9211240F900FBE0F90AD
:100B50001F901895109292011092910188EE93E0E7
:100B6000A0E0B0E08093930190939401A09395014D
:100B7000B093960128E031E03093900120938F01EB
:100B800025EC30E030939C0120939B0124EC30E075
:100B900030939E0120939D0120EC30E03093A00122
:100BA00020939F0121EC30E03093A2012093A1011A
:100BB00022EC30E03093A4012093A30126EC30E036
:100BC0003093A6012093A5011092A8011092A901CB
:100BD0001092AA011092AB0110922F0210922E02D5
:100BE0008093300290933102A0933202B09333028B
:100BF0008AE191E090932D0280932C02109243029F
:100C00001092420210924502109244021092470242
:100C100010924602109249021092480260914A02D4
:100C20006E7F6D7F60934A026695617081E06827F0
:100C300083E00E94EF0161E083E00E943B02E1EB70
:100C4000F0E0E491E0933C02EDE9F0E0E491F0E0C3
:100C5000EE0FFF1FE057FF4F8591949190933E0256
:100C600080933D0260E082E00E943B0280914A0254
:100C700081FD04C061E082E00E94EF0182E0809388
:100C80003802E0EBF0E0E491E0933902ECE9F0E0C7
:100C9000E491F0E0EE0FFF1FEA57FF4F859194912A
:100CA00090933B0280933A020895CF93DF93CDB7A0
:100CB000DEB768970FB6F894DEBF0FBECDBF78944D
:100CC00084B5826084BD84B5816084BD85B5826051
:100CD00085BD85B5816085BD80916E008160809302
:100CE0006E0010928100809181008260809381006B
:100CF000809181008160809381008091800081607B
:100D0000809380008091B10084608093B1008091D5
:100D1000B00081608093B00080917A0084608093FD
:100D20007A0080917A00826080937A0080917A00C4
:100D3000816080937A0080917A00806880937A0045
:100D40001092C1001092B0001092B1001092B20047
:100D50008FEF8093B3008091B00082608093B000E9
:100D60008091B10082608093B100809170008260B8
:100D700080937000E0919F01F091A00182E0808358
:100D8000E0919B01F0919C011082E0919D01F09116
:100D90009E0180E180831092A701E091A301F09170
:100DA000A40186E08083E091A101F091A2018081FD
:100DB00080618083E091A101F091A201808188602F
:100DC0008083E091A101F091A201808180688083FD
:100DD000E091A101F091A20180818F7D808310922A
:100DE000470210924602109245021092440210925D
:100DF0004302109242028DE991E090934902809360
:100E0000480290913802963108F047C02DEB30E04F
:100E100030934302209342022BE931E030934502A4
:100E2000209344022CE231E03093470220934602A3
:100E30002091680084E0983048F031E09E3008F45A
:100E400030E081E001C0880F3A95EAF7822B809369
:100E500068002DE630E0983050F02BE630E09E3010
:100E600030F02CE630E0963110F030E020E03093A6
:100E7000400220933F02292F30E0983008F049C209
:100E800081E001C0880F9A95EAF780934102809132
:100E90004802909149020197F1F7809146029091A2
:100EA0004702892B49F1E0918701F091880182E0A6
:100EB000EC32F80709F1309739F0A389B4899C9195
:100EC0008589809589238C9380914A028E7F8093B7
:100ED0004A0210928601109285018CE292E0909372
:100EE000880180938701E0913F02F0914002808168
:100EF00090914102892B808361E08DE00E943B024A
:100F000061E089E00E943B0261E08AE00E943B02CE
:100F100061E087E00E943B0261E088E00E943B02C2
:100F200060E089E00E94EF0160E08AE00E94EF014A
:100F300060E087E00E94EF0160E088E00E94EF013E
:100F400070E060E085E00E946C0270E060E086E0A6
:100F50000E946C0283E08093000160ED77E080E006
:100F600090E00E94060378944090010150900201A5
:100F70006090030100E010E04A8A5B8A6C8A8FE887
:100F800091E00E944001892B09F4F8C043E050E051
:100F9000BE016E5E7F4F8FE891E00E948D008A89CE
:100FA000803341F48B898D3029F48C898A3011F497
:100FB0000E94EA038A89813381F58B898D3069F536
:100FC0008C898A3051F560EF70E085E00E946C02F8
:100FD0006CEE70E086E00E946C0260E089E00E94A6
:100FE000EF0161E08AE00E94EF0160E087E00E948B
:100FF000EF0161E088E00E94EF0164E670E080E0CC
:1010000090E00E94060366E970E085E00E946C02B1
:1010100067E870E086E00E946C028A89823381F57D
:101020008B898D3069F58C898A3051F560EF70E0DD
:1010300085E00E946C026CEE70E086E00E946C021B
:1010400061E089E00E94EF0160E08AE00E94EF0128
:1010500061E087E00E94EF0160E088E00E94EF011C
:1010600064E670E080E090E00E94060366E970E0CC
:1010700085E00E946C0267E870E086E00E946C02E6
:101080008A898333E1F58B898D30C9F58C898A3063
:10109000B1F560EF70E085E00E946C0260EF70E0F7
:1010A00086E00E946C0261E089E00E94EF0160E04E
:1010B0008AE00E94EF0160E087E00E94EF0161E0BA
:1010C00088E00E94EF0162E370E080E090E00E941F
:1010D000060364E670E085E00E946C0264E670E05E
:1010E00086E00E946C0264ED71E080E090E00E9476
:1010F00006030E94EA0388E291E00E940A048A89BA
:101100008433E1F58B898D30C9F58C898A30B1F54E
:1011100060EF70E085E00E946C0260EF70E086E0B6
:101120000E946C0260E089E00E94EF0161E08AE0C9
:101130000E94EF0161E087E00E94EF0160E088E03B
:101140000E94EF0164E670E080E090E00E940603F8
:1011500064E670E085E00E946C0264E670E086E080
:101160000E946C026BE072E080E090E00E94060357
:101170000E94EA038CE291E00E940A048EE00E9441
:10118000C9026C018FE00E94C9027C012FB7F8945C
:101190008091890190918A01A0918B01B0918C017D
:1011A0002FBF40918D0150918E01052E000C660BD2
:1011B000770B841B950BA60BB70B84369105A10505
:1011C000B10508F49AC080E391E00E940A04C601C8
:1011D0000E947C0481E391E00E940A04C7010E94FE
:1011E0007C0481E391E00E940A0481E10E94C9022B
:1011F0000E947C0481E391E00E940A0480E10E9445
:10120000C902BC01990F880B990B0E94520A2DEC60
:101210003CEC4CE85AE30E94B10A20E030E040EF99
:1012200050E40E94B10A6B017C014B015C01AC01EE
:101230009B010E94100C882309F478C083E391E09D
:101240000E940A0481E391E00E940A0441E150E017
:10125000BE016F5F7F4F8CE292E00E948D0089811A
:101260008A3089F58A818D3071F58B81833559F506
:101270008C818E3441F58D81803229F58E818033C9
:1012800011F58F818837F9F488858033E1F48985F9
:101290008333C9F48A858334B1F48B85863399F41A
:1012A0008C85823381F48D85873369F48E85803314
:1012B00051F48F85803339F48889833321F461E0D8
:1012C0008989823309F060E070E090E080E04AE0D4
:1012D0000E94170489E291E00E940A042FB7F89453
:1012E0008091890190918A01A0918B01B0918C012C
:1012F0002FBF90938E0180938D010115110509F484
:101300003BCE0E944C01882309F436CE0E94000097
:1013100033CE9E3040F42850310981E001C0880F5F
:101320002A95EAF7B2CD2E503109F7CFD701C60181
:10133000BF778D8B9E8BAF8BB88F2FEF3FEF4FE733
:101340005FE7BC01CD010E94100C81110FC02FEF8F
:101350003FEF4FE75FE76D897E898F89988D0E9407
:101360004B0A18161CF487E391E06ACF2FEF3FEF8A
:101370004FE75FE4C701B6010E940B0C18161CF47E
:101380008BE391E05DCF2FEF3FEF4FE75FECC701BD
:10139000B6010E944B0A87FDF3CF20E030E0A9019F
:1013A000C701B6010E944B0A87FF0BC06DE28FE8B0
:1013B00091E00E94820146015701B7FAB094B7F854
:1013C000B0942AE037ED43EA5BE3C501B4010E9423
:1013D000700B4B015C010E94DC0B6B017C010E94D5
:1013E000500A9B01AC01C501B4010E946F0B4B0177
:1013F0005C014AE0C701B6010E9417046EE28FE863
:1014000091E00E94820120E030E040E251E4C50119
:10141000B4010E94B10A4B015C010E94DC0B6B011C
:10142000F12CE12C4AE0C701B6010E941704C70164
:10143000B6010E94500A9B01AC01C501B4010E9493
:101440006F0B20E030E040E251E40E94B10A0E94BC
:10145000DC0B90E080E04AE00E941704F3CE8AE1C2
:1014600091E090932D0280932C02809187019091BE
:1014700088018C52924071F4E0913F02F091400259
:101480009081809141028095892380831092880108
:101490001092870108950E948D0A08F481E0089552
:1014A000E89409C097FB3EF49095809570956195FE
:1014B0007F4F8F4F9F4F9923A9F0F92F96E9BB27B4
:1014C0009395F695879577956795B795F111F8CF30
:1014D000FAF4BB0F11F460FF1BC06F5F7F4F8F4F9B
:1014E0009F4F16C0882311F096E911C0772321F091
:1014F0009EE8872F762F05C0662371F096E8862F29
:1015000070E060E02AF09A95660F771F881FDAF77F
:10151000880F9695879597F90895990F0008550FAC
:10152000AA0BE0E8FEEF16161706E807F907C0F069
:1015300012161306E407F50798F0621B730B840B71
:10154000950B39F40A2661F0232B242B252B21F44B
:1015500008950A2609F4A140A6958FEF811D811DEB
:1015600008950E94C40A0C94350B0E94270B38F092
:101570000E942E0B20F0952311F00C941E0B0C945E
:10158000240B11240C94690B0E94460B70F3959F59
:10159000C1F3950F50E0551F629FF001729FBB276A
:1015A000F00DB11D639FAA27F00DB11DAA1F649F06
:1015B0006627B00DA11D661F829F2227B00DA11DB9
:1015C000621F739FB00DA11D621F839FA00D611D3F
:1015D000221F749F3327A00D611D231F849F600D60
:1015E000211D822F762F6A2F11249F5750409AF089
:1015F000F1F088234AF0EE0FFF1FBB1F661F771F15
:10160000881F91505040A9F79E3F510580F00C94DF
:101610001E0B0C94690B5F3FE4F3983ED4F3869560
:1016200077956795B795F795E7959F5FC1F7FE2B7F
:10163000880F911D9695879597F9089597F99F675B
:1016400080E870E060E008959FEF80EC089500244A
:101650000A941616170618060906089500240A9417
:1016600012161306140605060895092E0394000C9D
:1016700011F4882352F0BB0F40F4BF2B11F460FF2C
:1016800004C06F5F7F4F8F4F9F4F089557FD905855
:10169000440F551F59F05F3F71F04795880F97FB36
:1016A000991F61F09F3F79F08795089512161306F0
:1016B0001406551FF2CF4695F1DF08C0161617061F
:1016C0001806991FF1CF8695710561050894089554
:1016D000E894BB2766277727CB0197F908955058E0
:1016E000BB27AA270E94870B0C94350B0E94270B5F
:1016F00038F00E942E0B20F039F49F3F19F426F4A5
:101700000C94240B0EF4E095E7FB0C941E0BE92FD0
:101710000E94460B58F3BA176207730784079507B0
:1017200020F079F4A6F50C94680B0EF4E0950B2EDE
:10173000BA2FA02D0B01B90190010C01CA01A00123
:101740001124FF27591B99F0593F50F4503E68F17E
:101750001A16F040A22F232F342F4427585FF3CFBF
:10176000469537952795A795F0405395C9F77EF490
:101770001F16BA0B620B730B840BBAF09150A1F0D9
:10178000FF0FBB1F661F771F881FC2F70EC0BA0F5F
:10179000621F731F841F48F4879577956795B795E7
:1017A000F7959E3F08F0B0CF9395880F08F09927E2
:1017B000EE0F9795879508950E944E0B88F09F57DE
:1017C00098F0B92F9927B751B0F0E1F0660F771F65
:1017D000881F991F1AF0BA95C9F714C0B13091F05B
:1017E0000E94680BB1E008950C94680B672F782F66
:1017F0008827B85F39F0B93FCCF386957795679520
:10180000B395D9F73EF490958095709561957F4F8B
:101810008F4F9F4F08950E948D0A08F48FEF08950F
:101820000E948D0A880B990B089597FB072E16F4DA
:10183000009407D077FD09D00E944B0C07FC05D01F
:101840003EF4909581959F4F0895709561957F4FD7
:101850000895A1E21A2EAA1BBB1BFD010DC0AA1FF1
:10186000BB1FEE1FFF1FA217B307E407F50720F009
:10187000A21BB30BE40BF50B661F771F881F991F84
:101880001A9469F760957095809590959B01AC01CD
:10189000BD01CF010895AA1BBB1B51E107C0AA1FC0
:1018A000BB1FA617B70710F0A61BB70B881F991F01
:1018B0005A95A9F780959095BC01CD010895EE0F3A
:1018C000FF1F0590F491E02D099410E0C2E6D0E0EE
:1018D00004C0FE010E945F0C2196C336D107C9F7F0
:0418E000F894FFCFAA
:1018E40001303030000000008201E2000F01CF011E
:1018F40040011E013201000000005203E200E70330
:101904005103AE03C6033903330D0A00340D0A0034
:101914005320006E616E00696E66006F766600008B
:107800000C94343C0C94513C0C94513C0C94513CE1
:107810000C94513C0C94513C0C94513C0C94513CB4
:107820000C94513C0C94513C0C94513C0C94513CA4
:107830000C94513C0C94513C0C94513C0C94513C94
:107840000C94513C0C94513C0C94513C0C94513C84
:107850000C94513C0C94513C0C94513C0C94513C74
:107860000C94513C0C94513C11241FBECFEFD8E036
:10787000DEBFCDBF11E0A0E0B1E0ECE9FFE702C060
:1078800005900D92A230B107D9F712E0A2E0B1E065
:1078900001C01D92AD30B107E1F70E942D3D0C945F
:1078A000CC3F0C94003C982F959595959595959582
:1078B000905D8F708A307CF0282F295A8091C0000B
:1078C00085FFFCCF9093C6008091C00085FFFCCF60
:1078D0002093C6000895282F205DF0CF982F809127
:1078E000C00085FFFCCF9093C6000895EF92FF92F1
:1078F0000F931F93EE24FF2487018091C00087FD22
:1079000017C00894E11CF11C011D111D81E4E8164B
:1079100082E4F8068FE0080780E0180770F3E09132
:107920000401F091050109958091C00087FFE9CF1E
:107930008091C6001F910F91FF90EF9008950E94D3
:10794000763C982F8091C00085FFFCCF9093C600B5
:1079500091362CF490330CF09053892F089597555D
:10796000892F08951F930E949F3C182F0E949F3CCF
:107970001295107F810F1F9108951F93182F882350
:1079800021F00E94763C1150E1F71F9108951F935A
:10799000182F0E94763C803249F0809103018F5F5E
:1079A000809303018530C1F01F9108958091C0003C
:1079B00085FFFCCF84E18093C6008091C00085FFE5
:1079C000FCCF1093C6008091C00085FFFCCF80E102
:1079D0008093C6001F910895E0910401F091050184
:1079E00009951F9108950E94763C803241F0809164
:1079F00003018F5F80930301853081F008958091AA
:107A0000C00085FFFCCF84E18093C6008091C00058
:107A100085FFFCCF80E18093C6000895E0910401CA
:107A2000F09105010995089540E951E08823A1F0FE
:107A30002D9A28EE33E0FA013197F1F721503040CA
:107A4000D1F72D9828EE33E0FA013197F1F7215064
:107A50003040D1F7815061F708953F924F925F9285
:107A60006F927F928F929F92AF92BF92CF92DF924E
:107A7000EF92FF920F931F93CF93DF93000080E16B
:107A80008093C4001092C50088E18093C10086E015
:107A90008093C2005098589A259A81E00E94143D24
:107AA00024E1F22E9EE1E92E85E9D82E0FE0C02ECA
:107AB00010E1B12EAA24A394B1E49B2EA6E58A2E50
:107AC000F2E57F2EE0E26E2E79E4572E63E5462E36
:107AD00050E5352E0E94763C8033B1F18133B9F107
:107AE000803409F46FC0813409F476C0823409F41B
:107AF00085C0853409F488C0803531F1823521F1A3
:107B0000813511F1853509F485C0863509F48DC0BC
:107B1000843609F496C0843709F403C1853709F423
:107B200072C1863709F466C0809103018F5F80932C
:107B30000301853079F6E0910401F0910501099582
:107B40000E94763C803351F60E94F33CC3CF0E94E2
:107B5000763C803249F78091C00085FFFCCFF092DF
:107B6000C6008091C00085FFFCCF9092C600809136
:107B7000C00085FFFCCF8092C6008091C00085FFC9
:107B8000FCCF7092C6008091C00085FFFCCF609250
:107B9000C6008091C00085FFFCCF5092C600809146
:107BA000C00085FFFCCF4092C6008091C00085FFD9
:107BB000FCCF3092C6008091C00085FFFCCFB09210
:107BC000C60088CF0E94763C863808F4BDCF0E945C
:107BD000763C0E94F33C7ECF0E94763C803809F4CC
:107BE0009CC0813809F40BC1823809F43CC1883942
:107BF00009F48FC080E00E94C73C6CCF84E10E94F2
:107C0000BD3C0E94F33C66CF85E00E94BD3C0E94D3
:107C1000F33C60CF0E94763C809306010E94763C44
:107C2000809307010E94F33C55CF0E94763C80333D
:107C300009F41DC183E00E94BD3C80E00E94C73C66
:107C400049CF0E94763C809309020E94763C809343
:107C5000080280910C028E7F80930C020E94763C79
:107C6000853409F415C18091080290910902892B8D
:107C700089F000E010E00E94763CF801E85FFE4FDA
:107C800080830F5F1F4F80910802909109020817AF
:107C9000190788F30E94763C803209F045CF809125
:107CA0000C0280FF01C16091060170910701660F0F
:107CB000771F7093070160930601A0910802B091AD
:107CC00009021097C9F0E8E0F1E09B01AD014E0F09
:107CD0005F1FF999FECF32BD21BD819180BDFA9A17
:107CE000F99A2F5F3F4FE417F50799F76A0F7B1F4B
:107CF00070930701609306018091C00085FFFCCF5F
:107D0000F092C6008091C00085FFFCCFB092C60003
:107D1000E1CE83E00E94C73CDDCE82E00E94C73CFA
:107D2000D9CE0E94763C809309020E94763C8093D3
:107D300008028091060190910701880F991F909386
:107D40000701809306010E94763C853409F4A6C0A1
:107D500080910C028E7F80930C020E94763C8032D0
:107D600009F0B8CE8091C00085FFFCCFF092C6002C
:107D7000609108027091090261157105B9F140E046
:107D800050E080910C02A82FA170B82FB27011C0E2
:107D9000BB2309F45CC0E0910601F0910701319624
:107DA000F0930701E09306014F5F5F4F46175707B7
:107DB000E8F4AA2369F3F999FECF209106013091E6
:107DC000070132BD21BDF89A90B58091C00085FFB2
:107DD000FCCF9093C6002F5F3F4F30930701209355
:107DE00006014F5F5F4F4617570718F38091C00099
:107DF00085FDE5CE8091C00085FFF8CFE0CE81E023
:107E00000E94C73C67CE0E94763C803209F08CCE3F
:107E10008091C00085FFFCCFF092C6008091C00029
:107E200085FFFCCFE092C6008091C00085FFFCCFAB
:107E3000D092C6008091C00085FFFCCFC092C600E2
:107E40008091C00085FFFCCFB092C60043CEE09188
:107E50000601F091070194918091C00085FFFCCF4D
:107E60009093C6009CCF80E10E94C73C33CE0E9415
:107E7000763C0E94763C182F0E94763C112309F430
:107E800083C0113009F484C08FE00E94C73C22CE29
:107E900080910C02816080930C02E5CE80910C02EF
:107EA000816080930C0259CF809107018823880F4D
:107EB000880B8A2180930B02809106019091070123
:107EC000880F991F90930701809306018091080203
:107ED00080FF09C080910802909109020196909359
:107EE000090280930802F894F999FECF1127E091D6
:107EF0000601F0910701C8E0D1E08091080290915D
:107F00000902103091F40091570001700130D9F34B
:107F100003E000935700E89500915700017001308D
:107F2000D9F301E100935700E89509901990009169
:107F3000570001700130D9F301E000935700E89534
:107F40001395103498F011270091570001700130FB
:107F5000D9F305E000935700E895009157000170B0
:107F60000130D9F301E100935700E895329602976A
:107F700009F0C7CF103011F00296E5CF112480919F
:107F8000C00085FFB9CEBCCE8EE10E94C73CA2CD19
:0C7F900085E90E94C73C9ECDF894FFCF0D
:027F9C00800063
:040000030000780081
:00000001FF
